{"abi":[{"type":"constructor","inputs":[{"name":"name","type":"string","internalType":"string"},{"name":"symbol","type":"string","internalType":"string"}],"stateMutability":"nonpayable"},{"type":"function","name":"allowance","inputs":[{"name":"owner","type":"address","internalType":"address"},{"name":"spender","type":"address","internalType":"address"}],"outputs":[{"name":"","type":"uint256","internalType":"uint256"}],"stateMutability":"view"},{"type":"function","name":"approve","inputs":[{"name":"spender","type":"address","internalType":"address"},{"name":"value","type":"uint256","internalType":"uint256"}],"outputs":[{"name":"","type":"bool","internalType":"bool"}],"stateMutability":"nonpayable"},{"type":"function","name":"balanceOf","inputs":[{"name":"account","type":"address","internalType":"address"}],"outputs":[{"name":"","type":"uint256","internalType":"uint256"}],"stateMutability":"view"},{"type":"function","name":"decimals","inputs":[],"outputs":[{"name":"","type":"uint8","internalType":"uint8"}],"stateMutability":"view"},{"type":"function","name":"getBalanceEncrypted","inputs":[{"name":"account","type":"address","internalType":"address"}],"outputs":[{"name":"","type":"uint256","internalType":"euint64"}],"stateMutability":"view"},{"type":"function","name":"name","inputs":[],"outputs":[{"name":"","type":"string","internalType":"string"}],"stateMutability":"view"},{"type":"function","name":"symbol","inputs":[],"outputs":[{"name":"","type":"string","internalType":"string"}],"stateMutability":"view"},{"type":"function","name":"totalSupply","inputs":[],"outputs":[{"name":"","type":"uint256","internalType":"uint256"}],"stateMutability":"view"},{"type":"function","name":"transfer","inputs":[{"name":"to","type":"address","internalType":"address"},{"name":"value","type":"uint256","internalType":"uint256"}],"outputs":[{"name":"","type":"bool","internalType":"bool"}],"stateMutability":"nonpayable"},{"type":"function","name":"transferEncrypted","inputs":[{"name":"to","type":"address","internalType":"address"},{"name":"encryptedAmount","type":"bytes32","internalType":"einput"},{"name":"inputProof","type":"bytes","internalType":"bytes"}],"outputs":[],"stateMutability":"nonpayable"},{"type":"function","name":"transferFrom","inputs":[{"name":"from","type":"address","internalType":"address"},{"name":"to","type":"address","internalType":"address"},{"name":"value","type":"uint256","internalType":"uint256"}],"outputs":[{"name":"","type":"bool","internalType":"bool"}],"stateMutability":"nonpayable"},{"type":"function","name":"unwrap","inputs":[{"name":"amount","type":"uint64","internalType":"uint64"}],"outputs":[],"stateMutability":"nonpayable"},{"type":"function","name":"wrap","inputs":[{"name":"amount","type":"uint64","internalType":"uint64"}],"outputs":[],"stateMutability":"nonpayable"},{"type":"event","name":"Approval","inputs":[{"name":"owner","type":"address","indexed":true,"internalType":"address"},{"name":"spender","type":"address","indexed":true,"internalType":"address"},{"name":"value","type":"uint256","indexed":false,"internalType":"uint256"}],"anonymous":false},{"type":"event","name":"EncryptedTransfer","inputs":[{"name":"from","type":"address","indexed":true,"internalType":"address"},{"name":"to","type":"address","indexed":true,"internalType":"address"}],"anonymous":false},{"type":"event","name":"Transfer","inputs":[{"name":"from","type":"address","indexed":true,"internalType":"address"},{"name":"to","type":"address","indexed":true,"internalType":"address"},{"name":"value","type":"uint256","indexed":false,"internalType":"uint256"}],"anonymous":false},{"type":"event","name":"Unwrapped","inputs":[{"name":"account","type":"address","indexed":true,"internalType":"address"},{"name":"amount","type":"uint64","indexed":false,"internalType":"uint64"}],"anonymous":false},{"type":"event","name":"Wrapped","inputs":[{"name":"account","type":"address","indexed":true,"internalType":"address"},{"name":"amount","type":"uint64","indexed":false,"internalType":"uint64"}],"anonymous":false},{"type":"error","name":"ERC20InsufficientAllowance","inputs":[{"name":"spender","type":"address","internalType":"address"},{"name":"allowance","type":"uint256","internalType":"uint256"},{"name":"needed","type":"uint256","internalType":"uint256"}]},{"type":"error","name":"ERC20InsufficientBalance","inputs":[{"name":"sender","type":"address","internalType":"address"},{"name":"balance","type":"uint256","internalType":"uint256"},{"name":"needed","type":"uint256","internalType":"uint256"}]},{"type":"error","name":"ERC20InvalidApprover","inputs":[{"name":"approver","type":"address","internalType":"address"}]},{"type":"error","name":"ERC20InvalidReceiver","inputs":[{"name":"receiver","type":"address","internalType":"address"}]},{"type":"error","name":"ERC20InvalidSender","inputs":[{"name":"sender","type":"address","internalType":"address"}]},{"type":"error","name":"ERC20InvalidSpender","inputs":[{"name":"spender","type":"address","internalType":"address"}]},{"type":"error","name":"SecurityZoneOutOfBounds","inputs":[{"name":"value","type":"int32","internalType":"int32"}]}],"bytecode":{"object":"0x608060405234801561000f575f5ffd5b50604051612da6380380612da683398181016040528101906100319190610487565b81818160039081610042919061070d565b508060049081610052919061070d565b50505061008d3361006761009460201b60201c565b60ff16600a6100769190610938565b60646100829190610982565b61009c60201b60201c565b5050610aab565b5f6012905090565b5f73ffffffffffffffffffffffffffffffffffffffff168273ffffffffffffffffffffffffffffffffffffffff160361010c575f6040517fec442f050000000000000000000000000000000000000000000000000000000081526004016101039190610a02565b60405180910390fd5b61011d5f838361012160201b60201c565b5050565b5f73ffffffffffffffffffffffffffffffffffffffff168373ffffffffffffffffffffffffffffffffffffffff1603610171578060025f8282546101659190610a1b565b9250508190555061023f565b5f5f5f8573ffffffffffffffffffffffffffffffffffffffff1673ffffffffffffffffffffffffffffffffffffffff1681526020019081526020015f20549050818110156101fa578381836040517fe450d38c0000000000000000000000000000000000000000000000000000000081526004016101f193929190610a5d565b60405180910390fd5b8181035f5f8673ffffffffffffffffffffffffffffffffffffffff1673ffffffffffffffffffffffffffffffffffffffff1681526020019081526020015f2081905550505b5f73ffffffffffffffffffffffffffffffffffffffff168273ffffffffffffffffffffffffffffffffffffffff1603610286578060025f82825403925050819055506102d0565b805f5f8473ffffffffffffffffffffffffffffffffffffffff1673ffffffffffffffffffffffffffffffffffffffff1681526020019081526020015f205f82825401925050819055505b8173ffffffffffffffffffffffffffffffffffffffff168373ffffffffffffffffffffffffffffffffffffffff167fddf252ad1be2c89b69c2b068fc378daa952ba7f163c4a11628f55a4df523b3ef8360405161032d9190610a92565b60405180910390a3505050565b5f604051905090565b5f5ffd5b5f5ffd5b5f5ffd5b5f5ffd5b5f601f19601f8301169050919050565b7f4e487b71000000000000000000000000000000000000000000000000000000005f52604160045260245ffd5b61039982610353565b810181811067ffffffffffffffff821117156103b8576103b7610363565b5b80604052505050565b5f6103ca61033a565b90506103d68282610390565b919050565b5f67ffffffffffffffff8211156103f5576103f4610363565b5b6103fe82610353565b9050602081019050919050565b8281835e5f83830152505050565b5f61042b610426846103db565b6103c1565b9050828152602081018484840111156104475761044661034f565b5b61045284828561040b565b509392505050565b5f82601f83011261046e5761046d61034b565b5b815161047e848260208601610419565b91505092915050565b5f5f6040838503121561049d5761049c610343565b5b5f83015167ffffffffffffffff8111156104ba576104b9610347565b5b6104c68582860161045a565b925050602083015167ffffffffffffffff8111156104e7576104e6610347565b5b6104f38582860161045a565b9150509250929050565b5f81519050919050565b7f4e487b71000000000000000000000000000000000000000000000000000000005f52602260045260245ffd5b5f600282049050600182168061054b57607f821691505b60208210810361055e5761055d610507565b5b50919050565b5f819050815f5260205f209050919050565b5f6020601f8301049050919050565b5f82821b905092915050565b5f600883026105c07fffffffffffffffffffffffffffffffffffffffffffffffffffffffffffffffff82610585565b6105ca8683610585565b95508019841693508086168417925050509392505050565b5f819050919050565b5f819050919050565b5f61060e610609610604846105e2565b6105eb565b6105e2565b9050919050565b5f819050919050565b610627836105f4565b61063b61063382610615565b848454610591565b825550505050565b5f5f905090565b610652610643565b61065d81848461061e565b505050565b5b81811015610680576106755f8261064a565b600181019050610663565b5050565b601f8211156106c55761069681610564565b61069f84610576565b810160208510156106ae578190505b6106c26106ba85610576565b830182610662565b50505b505050565b5f82821c905092915050565b5f6106e55f19846008026106ca565b1980831691505092915050565b5f6106fd83836106d6565b9150826002028217905092915050565b610716826104fd565b67ffffffffffffffff81111561072f5761072e610363565b5b6107398254610534565b610744828285610684565b5f60209050601f831160018114610775575f8415610763578287015190505b61076d85826106f2565b8655506107d4565b601f19841661078386610564565b5f5b828110156107aa57848901518255600182019150602085019450602081019050610785565b868310156107c757848901516107c3601f8916826106d6565b8355505b6001600288020188555050505b505050505050565b7f4e487b71000000000000000000000000000000000000000000000000000000005f52601160045260245ffd5b5f8160011c9050919050565b5f5f8291508390505b600185111561085e5780860481111561083a576108396107dc565b5b60018516156108495780820291505b808102905061085785610809565b945061081e565b94509492505050565b5f826108765760019050610931565b81610883575f9050610931565b816001811461089957600281146108a3576108d2565b6001915050610931565b60ff8411156108b5576108b46107dc565b5b8360020a9150848211156108cc576108cb6107dc565b5b50610931565b5060208310610133831016604e8410600b84101617156109075782820a905083811115610902576109016107dc565b5b610931565b6109148484846001610815565b9250905081840481111561092b5761092a6107dc565b5b81810290505b9392505050565b5f610942826105e2565b915061094d836105e2565b925061097a7fffffffffffffffffffffffffffffffffffffffffffffffffffffffffffffffff8484610867565b905092915050565b5f61098c826105e2565b9150610997836105e2565b92508282026109a5816105e2565b915082820484148315176109bc576109bb6107dc565b5b5092915050565b5f73ffffffffffffffffffffffffffffffffffffffff82169050919050565b5f6109ec826109c3565b9050919050565b6109fc816109e2565b82525050565b5f602082019050610a155f8301846109f3565b92915050565b5f610a25826105e2565b9150610a30836105e2565b9250828201905080821115610a4857610a476107dc565b5b92915050565b610a57816105e2565b82525050565b5f606082019050610a705f8301866109f3565b610a7d6020830185610a4e565b610a8a6040830184610a4e565b949350505050565b5f602082019050610aa55f830184610a4e565b92915050565b6122ee80610ab85f395ff3fe608060405234801561000f575f5ffd5b50600436106100cd575f3560e01c806343085e3b1161008a57806395d89b411161006457806395d89b4114610223578063a9059cbb14610241578063dc412e8314610271578063dd62ed3e1461028d576100cd565b806343085e3b146101a757806352a7c9bf146101d757806370a08231146101f3576100cd565b806306fdde03146100d1578063095ea7b3146100ef57806318160ddd1461011f57806323b872dd1461013d578063313ce5671461016d5780633c5295c91461018b575b5f5ffd5b6100d96102bd565b6040516100e69190611975565b60405180910390f35b61010960048036038101906101049190611a2a565b61034d565b6040516101169190611a82565b60405180910390f35b61012761036f565b6040516101349190611aaa565b60405180910390f35b61015760048036038101906101529190611ac3565b610378565b6040516101649190611a82565b60405180910390f35b6101756103a6565b6040516101829190611b2e565b60405180910390f35b6101a560048036038101906101a09190611bdb565b6103ae565b005b6101c160048036038101906101bc9190611c4c565b610648565b6040516101ce9190611cb0565b60405180910390f35b6101f160048036038101906101ec9190611d06565b61068e565b005b61020d60048036038101906102089190611c4c565b6107e7565b60405161021a9190611aaa565b60405180910390f35b61022b61082c565b6040516102389190611975565b60405180910390f35b61025b60048036038101906102569190611a2a565b6108bc565b6040516102689190611a82565b60405180910390f35b61028b60048036038101906102869190611d06565b6108de565b005b6102a760048036038101906102a29190611d31565b610a74565b6040516102b49190611aaa565b60405180910390f35b6060600380546102cc90611d9c565b80601f01602080910402602001604051908101604052809291908181526020018280546102f890611d9c565b80156103435780601f1061031a57610100808354040283529160200191610343565b820191905f5260205f20905b81548152906001019060200180831161032657829003601f168201915b5050505050905090565b5f5f610357610af6565b9050610364818585610afd565b600191505092915050565b5f600254905090565b5f5f610382610af6565b905061038f858285610b0f565b61039a858585610ba2565b60019150509392505050565b5f6012905090565b5f6103fc8484848080601f0160208091040260200160405190810160405280939291908181526020018383808284375f81840152601f19601f82011690508083019250505050505050610c92565b90505f6104468260055f3373ffffffffffffffffffffffffffffffffffffffff1673ffffffffffffffffffffffffffffffffffffffff1681526020019081526020015f2054610ca9565b90506104d68161049360055f3373ffffffffffffffffffffffffffffffffffffffff1673ffffffffffffffffffffffffffffffffffffffff1681526020019081526020015f205485610cbc565b60055f3373ffffffffffffffffffffffffffffffffffffffff1673ffffffffffffffffffffffffffffffffffffffff1681526020019081526020015f2054610d05565b60055f3373ffffffffffffffffffffffffffffffffffffffff1673ffffffffffffffffffffffffffffffffffffffff1681526020019081526020015f20819055506105a58161056260055f8a73ffffffffffffffffffffffffffffffffffffffff1673ffffffffffffffffffffffffffffffffffffffff1681526020019081526020015f205485610d67565b60055f8a73ffffffffffffffffffffffffffffffffffffffff1673ffffffffffffffffffffffffffffffffffffffff1681526020019081526020015f2054610d05565b60055f8873ffffffffffffffffffffffffffffffffffffffff1673ffffffffffffffffffffffffffffffffffffffff1681526020019081526020015f20819055508573ffffffffffffffffffffffffffffffffffffffff163373ffffffffffffffffffffffffffffffffffffffff167f8fb556326f22f916c68b89ac61b2b94546e36d300cdf1f2398ecaada4b25740060405160405180910390a3505050505050565b5f60055f8373ffffffffffffffffffffffffffffffffffffffff1673ffffffffffffffffffffffffffffffffffffffff1681526020019081526020015f20549050919050565b8067ffffffffffffffff166106a2336107e7565b10156106e3576040517f08c379a00000000000000000000000000000000000000000000000000000000081526004016106da90611e16565b60405180910390fd5b6106f7338267ffffffffffffffff16610db0565b5f61070b8267ffffffffffffffff16610e2f565b905061075460055f3373ffffffffffffffffffffffffffffffffffffffff1673ffffffffffffffffffffffffffffffffffffffff1681526020019081526020015f205482610d67565b60055f3373ffffffffffffffffffffffffffffffffffffffff1673ffffffffffffffffffffffffffffffffffffffff1681526020019081526020015f20819055503373ffffffffffffffffffffffffffffffffffffffff167fc034105ce796613e479785fbc221af62cd274c62adf689864f32ff00f249f863836040516107db9190611e43565b60405180910390a25050565b5f5f5f8373ffffffffffffffffffffffffffffffffffffffff1673ffffffffffffffffffffffffffffffffffffffff1681526020019081526020015f20549050919050565b60606004805461083b90611d9c565b80601f016020809104026020016040519081016040528092919081815260200182805461086790611d9c565b80156108b25780601f10610889576101008083540402835291602001916108b2565b820191905f5260205f20905b81548152906001019060200180831161089557829003601f168201915b5050505050905090565b5f5f6108c6610af6565b90506108d3818585610ba2565b600191505092915050565b5f6108f28267ffffffffffffffff16610e2f565b90505f61093c8260055f3373ffffffffffffffffffffffffffffffffffffffff1673ffffffffffffffffffffffffffffffffffffffff1681526020019081526020015f2054610ca9565b90506109cc8161098960055f3373ffffffffffffffffffffffffffffffffffffffff1673ffffffffffffffffffffffffffffffffffffffff1681526020019081526020015f205485610cbc565b60055f3373ffffffffffffffffffffffffffffffffffffffff1673ffffffffffffffffffffffffffffffffffffffff1681526020019081526020015f2054610d05565b60055f3373ffffffffffffffffffffffffffffffffffffffff1673ffffffffffffffffffffffffffffffffffffffff1681526020019081526020015f2081905550610a21338467ffffffffffffffff16610e41565b3373ffffffffffffffffffffffffffffffffffffffff167f52ef895d8686af42a4345fa3ae33da09ef82bce44a6c147c9bf3f8c182906ac784604051610a679190611e43565b60405180910390a2505050565b5f60015f8473ffffffffffffffffffffffffffffffffffffffff1673ffffffffffffffffffffffffffffffffffffffff1681526020019081526020015f205f8373ffffffffffffffffffffffffffffffffffffffff1673ffffffffffffffffffffffffffffffffffffffff1681526020019081526020015f2054905092915050565b5f33905090565b610b0a8383836001610ec0565b505050565b5f610b1a8484610a74565b90507fffffffffffffffffffffffffffffffffffffffffffffffffffffffffffffffff811015610b9c5781811015610b8d578281836040517ffb8f41b2000000000000000000000000000000000000000000000000000000008152600401610b8493929190611e6b565b60405180910390fd5b610b9b84848484035f610ec0565b5b50505050565b5f73ffffffffffffffffffffffffffffffffffffffff168373ffffffffffffffffffffffffffffffffffffffff1603610c12575f6040517f96c6fd1e000000000000000000000000000000000000000000000000000000008152600401610c099190611ea0565b60405180910390fd5b5f73ffffffffffffffffffffffffffffffffffffffff168273ffffffffffffffffffffffffffffffffffffffff1603610c82575f6040517fec442f05000000000000000000000000000000000000000000000000000000008152600401610c799190611ea0565b60405180910390fd5b610c8d83838361108f565b505050565b5f610ca1835f1c8360056112a8565b905092915050565b5f610cb483836113b1565b905092915050565b5f610cc6836113fa565b610cd657610cd35f610e2f565b92505b610cdf826113fa565b610cef57610cec5f610e2f565b91505b610cfd60058484600761140b565b905092915050565b5f610d0f846114fa565b610d1f57610d1c5f61150b565b93505b610d28836113fa565b610d3857610d355f610e2f565b92505b610d41826113fa565b610d5157610d4e5f610e2f565b91505b610d5e600585858561151d565b90509392505050565b5f610d71836113fa565b610d8157610d7e5f610e2f565b92505b610d8a826113fa565b610d9a57610d975f610e2f565b91505b610da860058484600861140b565b905092915050565b5f73ffffffffffffffffffffffffffffffffffffffff168273ffffffffffffffffffffffffffffffffffffffff1603610e20575f6040517f96c6fd1e000000000000000000000000000000000000000000000000000000008152600401610e179190611ea0565b60405180910390fd5b610e2b825f8361108f565b5050565b5f610e3a825f61160e565b9050919050565b5f73ffffffffffffffffffffffffffffffffffffffff168273ffffffffffffffffffffffffffffffffffffffff1603610eb1575f6040517fec442f05000000000000000000000000000000000000000000000000000000008152600401610ea89190611ea0565b60405180910390fd5b610ebc5f838361108f565b5050565b5f73ffffffffffffffffffffffffffffffffffffffff168473ffffffffffffffffffffffffffffffffffffffff1603610f30575f6040517fe602df05000000000000000000000000000000000000000000000000000000008152600401610f279190611ea0565b60405180910390fd5b5f73ffffffffffffffffffffffffffffffffffffffff168373ffffffffffffffffffffffffffffffffffffffff1603610fa0575f6040517f94280d62000000000000000000000000000000000000000000000000000000008152600401610f979190611ea0565b60405180910390fd5b8160015f8673ffffffffffffffffffffffffffffffffffffffff1673ffffffffffffffffffffffffffffffffffffffff1681526020019081526020015f205f8573ffffffffffffffffffffffffffffffffffffffff1673ffffffffffffffffffffffffffffffffffffffff1681526020019081526020015f20819055508015611089578273ffffffffffffffffffffffffffffffffffffffff168473ffffffffffffffffffffffffffffffffffffffff167f8c5be1e5ebec7d5bd14f71427d1e84f3dd0314c0f7b2291e5b200ac8c7c3b925846040516110809190611aaa565b60405180910390a35b50505050565b5f73ffffffffffffffffffffffffffffffffffffffff168373ffffffffffffffffffffffffffffffffffffffff16036110df578060025f8282546110d39190611ee6565b925050819055506111ad565b5f5f5f8573ffffffffffffffffffffffffffffffffffffffff1673ffffffffffffffffffffffffffffffffffffffff1681526020019081526020015f2054905081811015611168578381836040517fe450d38c00000000000000000000000000000000000000000000000000000000815260040161115f93929190611e6b565b60405180910390fd5b8181035f5f8673ffffffffffffffffffffffffffffffffffffffff1673ffffffffffffffffffffffffffffffffffffffff1681526020019081526020015f2081905550505b5f73ffffffffffffffffffffffffffffffffffffffff168273ffffffffffffffffffffffffffffffffffffffff16036111f4578060025f828254039250508190555061123e565b805f5f8473ffffffffffffffffffffffffffffffffffffffff1673ffffffffffffffffffffffffffffffffffffffff1681526020019081526020015f205f82825401925050819055505b8173ffffffffffffffffffffffffffffffffffffffff168373ffffffffffffffffffffffffffffffffffffffff167fddf252ad1be2c89b69c2b068fc378daa952ba7f163c4a11628f55a4df523b3ef8360405161129b9190611aaa565b60405180910390a3505050565b5f6022835110156112ee576040517f08c379a00000000000000000000000000000000000000000000000000000000081526004016112e590611f63565b60405180910390fd5b5f60405180608001604052808681526020015f60ff1681526020018460ff16815260200185815250905073020000000000000000000000000000000000008073ffffffffffffffffffffffffffffffffffffffff166327f9c76282336040518363ffffffff1660e01b8152600401611367929190612051565b6020604051808303815f875af1158015611383573d5f5f3e3d5ffd5b505050506040513d601f19601f820116820180604052508101906113a79190612093565b9150509392505050565b5f6113bb836113fa565b6113cb576113c85f610e2f565b92505b6113d4826113fa565b6113e4576113e15f610e2f565b91505b6113f260058484601361140b565b905092915050565b5f61140482611628565b9050919050565b5f73020000000000000000000000000000000000008073ffffffffffffffffffffffffffffffffffffffff16631888debd86846114488888611634565b5f67ffffffffffffffff811115611462576114616120be565b5b6040519080825280602002602001820160405280156114905781602001602082028036833780820191505090505b506040518563ffffffff1660e01b81526004016114b09493929190612206565b6020604051808303815f875af11580156114cc573d5f5f3e3d5ffd5b505050506040513d601f19601f820116820180604052508101906114f09190612093565b9050949350505050565b5f61150482611628565b9050919050565b5f611516825f6116ce565b9050919050565b5f73020000000000000000000000000000000000008073ffffffffffffffffffffffffffffffffffffffff16631888debd86600461155c8888886116f7565b5f67ffffffffffffffff811115611576576115756120be565b5b6040519080825280602002602001820160405280156115a45781602001602082028036833780820191505090505b506040518563ffffffff1660e01b81526004016115c49493929190612206565b6020604051808303815f875af11580156115e0573d5f5f3e3d5ffd5b505050506040513d601f19601f820116820180604052508101906116049190612093565b9050949350505050565b5f5f61161c846005856117b3565b90508091505092915050565b5f5f8214159050919050565b60605f600267ffffffffffffffff811115611652576116516120be565b5b6040519080825280602002602001820160405280156116805781602001602082028036833780820191505090505b50905083815f8151811061169757611696612257565b5b60200260200101818152505082816001815181106116b8576116b7612257565b5b6020026020010181815250508091505092915050565b5f5f5f905083156116de57600190505b5f6116ea825f866117b3565b9050809250505092915050565b60605f600367ffffffffffffffff811115611715576117146120be565b5b6040519080825280602002602001820160405280156117435781602001602082028036833780820191505090505b50905084815f8151811061175a57611759612257565b5b602002602001018181525050838160018151811061177b5761177a612257565b5b602002602001018181525050828160028151811061179c5761179b612257565b5b602002602001018181525050809150509392505050565b5f73020000000000000000000000000000000000008073ffffffffffffffffffffffffffffffffffffffff16631888debd84601a5f67ffffffffffffffff811115611801576118006120be565b5b60405190808252806020026020018201604052801561182f5781602001602082028036833780820191505090505b50611846898960ff166118418a6118ae565b6116f7565b6040518563ffffffff1660e01b81526004016118659493929190612206565b6020604051808303815f875af1158015611881573d5f5f3e3d5ffd5b505050506040513d601f19601f820116820180604052508101906118a59190612093565b90509392505050565b5f5f8260030b12156118f757816040517f8f568bf80000000000000000000000000000000000000000000000000000000081526004016118ee919061229f565b60405180910390fd5b8163ffffffff169050919050565b5f81519050919050565b5f82825260208201905092915050565b8281835e5f83830152505050565b5f601f19601f8301169050919050565b5f61194782611905565b611951818561190f565b935061196181856020860161191f565b61196a8161192d565b840191505092915050565b5f6020820190508181035f83015261198d818461193d565b905092915050565b5f5ffd5b5f5ffd5b5f73ffffffffffffffffffffffffffffffffffffffff82169050919050565b5f6119c68261199d565b9050919050565b6119d6816119bc565b81146119e0575f5ffd5b50565b5f813590506119f1816119cd565b92915050565b5f819050919050565b611a09816119f7565b8114611a13575f5ffd5b50565b5f81359050611a2481611a00565b92915050565b5f5f60408385031215611a4057611a3f611995565b5b5f611a4d858286016119e3565b9250506020611a5e85828601611a16565b9150509250929050565b5f8115159050919050565b611a7c81611a68565b82525050565b5f602082019050611a955f830184611a73565b92915050565b611aa4816119f7565b82525050565b5f602082019050611abd5f830184611a9b565b92915050565b5f5f5f60608486031215611ada57611ad9611995565b5b5f611ae7868287016119e3565b9350506020611af8868287016119e3565b9250506040611b0986828701611a16565b9150509250925092565b5f60ff82169050919050565b611b2881611b13565b82525050565b5f602082019050611b415f830184611b1f565b92915050565b5f819050919050565b611b5981611b47565b8114611b63575f5ffd5b50565b5f81359050611b7481611b50565b92915050565b5f5ffd5b5f5ffd5b5f5ffd5b5f5f83601f840112611b9b57611b9a611b7a565b5b8235905067ffffffffffffffff811115611bb857611bb7611b7e565b5b602083019150836001820283011115611bd457611bd3611b82565b5b9250929050565b5f5f5f5f60608587031215611bf357611bf2611995565b5b5f611c00878288016119e3565b9450506020611c1187828801611b66565b935050604085013567ffffffffffffffff811115611c3257611c31611999565b5b611c3e87828801611b86565b925092505092959194509250565b5f60208284031215611c6157611c60611995565b5b5f611c6e848285016119e3565b91505092915050565b5f819050919050565b5f611c9a611c95611c90846119f7565b611c77565b6119f7565b9050919050565b611caa81611c80565b82525050565b5f602082019050611cc35f830184611ca1565b92915050565b5f67ffffffffffffffff82169050919050565b611ce581611cc9565b8114611cef575f5ffd5b50565b5f81359050611d0081611cdc565b92915050565b5f60208284031215611d1b57611d1a611995565b5b5f611d2884828501611cf2565b91505092915050565b5f5f60408385031215611d4757611d46611995565b5b5f611d54858286016119e3565b9250506020611d65858286016119e3565b9150509250929050565b7f4e487b71000000000000000000000000000000000000000000000000000000005f52602260045260245ffd5b5f6002820490506001821680611db357607f821691505b602082108103611dc657611dc5611d6f565b5b50919050565b7f496e73756666696369656e74207075626c69632062616c616e636500000000005f82015250565b5f611e00601b8361190f565b9150611e0b82611dcc565b602082019050919050565b5f6020820190508181035f830152611e2d81611df4565b9050919050565b611e3d81611cc9565b82525050565b5f602082019050611e565f830184611e34565b92915050565b611e65816119bc565b82525050565b5f606082019050611e7e5f830186611e5c565b611e8b6020830185611a9b565b611e986040830184611a9b565b949350505050565b5f602082019050611eb35f830184611e5c565b92915050565b7f4e487b71000000000000000000000000000000000000000000000000000000005f52601160045260245ffd5b5f611ef0826119f7565b9150611efb836119f7565b9250828201905080821115611f1357611f12611eb9565b5b92915050565b7f496e76616c69642070726f6f66206c656e6774680000000000000000000000005f82015250565b5f611f4d60148361190f565b9150611f5882611f19565b602082019050919050565b5f6020820190508181035f830152611f7a81611f41565b9050919050565b611f8a816119f7565b82525050565b611f9981611b13565b82525050565b5f81519050919050565b5f82825260208201905092915050565b5f611fc382611f9f565b611fcd8185611fa9565b9350611fdd81856020860161191f565b611fe68161192d565b840191505092915050565b5f608083015f8301516120065f860182611f81565b5060208301516120196020860182611f90565b50604083015161202c6040860182611f90565b50606083015184820360608601526120448282611fb9565b9150508091505092915050565b5f6040820190508181035f8301526120698185611ff1565b90506120786020830184611e5c565b9392505050565b5f8151905061208d81611a00565b92915050565b5f602082840312156120a8576120a7611995565b5b5f6120b58482850161207f565b91505092915050565b7f4e487b71000000000000000000000000000000000000000000000000000000005f52604160045260245ffd5b7f4e487b71000000000000000000000000000000000000000000000000000000005f52602160045260245ffd5b60208110612129576121286120eb565b5b50565b5f81905061213982612118565b919050565b5f6121488261212c565b9050919050565b6121588161213e565b82525050565b5f81519050919050565b5f82825260208201905092915050565b5f819050602082019050919050565b5f6121928383611f81565b60208301905092915050565b5f602082019050919050565b5f6121b48261215e565b6121be8185612168565b93506121c983612178565b805f5b838110156121f95781516121e08882612187565b97506121eb8361219e565b9250506001810190506121cc565b5085935050505092915050565b5f6080820190506122195f830187611b1f565b612226602083018661214f565b818103604083015261223881856121aa565b9050818103606083015261224c81846121aa565b905095945050505050565b7f4e487b71000000000000000000000000000000000000000000000000000000005f52603260045260245ffd5b5f8160030b9050919050565b61229981612284565b82525050565b5f6020820190506122b25f830184612290565b9291505056fea264697066735822122010170a0789522249d9e6f7c813d0beb5811e7ab08095f433e1a359f0ffcbd4fa64736f6c634300081b0033","linkReferences":{}},"methodIdentifiers":{"allowance(address,address)":"dd62ed3e","approve(address,uint256)":"095ea7b3","balanceOf(address)":"70a08231","decimals()":"313ce567","getBalanceEncrypted(address)":"43085e3b","name()":"06fdde03","symbol()":"95d89b41","totalSupply()":"18160ddd","transfer(address,uint256)":"a9059cbb","transferEncrypted(address,bytes32,bytes)":"3c5295c9","transferFrom(address,address,uint256)":"23b872dd","unwrap(uint64)":"dc412e83","wrap(uint64)":"52a7c9bf"},"id":0}